S01B00006275696C642F72656C656173652F7A69676265652E73333714
S21400400008100020F16C000035B0000021E9020025
S21400401021E902003DB0000045B0000021E90200A1
S21400402021E9020021E9020021E9020021E902005B
S21400403049B00000A425040021E9020021E902009D
S21400404021E9020021E9020021E9020009680000D6
S21400405021E9020021E9020021E9020021E902002B
S21400406021E9020021E902004DB5000021E9020025
S21400407021E9020021E9020021E9020021E902000B
S21400408021E9020021E9020021E9020021E90200FB
S21400409021E9020021E9020021E9020021E90200EB
S2140040A021E90200597000003D70000021E902007D
S2140040B021E9020021E9020021E902001D040200B4
S2140040C05F4303005B43030081FB0100754303006D
S2140040D063430300DD0302006743030011E80100A9
S2140040E05D04020021E9020021E9020021E9020044
S2140040F021E9020021E9020021E9020021E902008B
S21400410021E9020021E9020021E9020021E902007A
S21400411021E9020021E9020021E9020021E902006A
S21400412021E9020021E9020021E9020021E902005A
S20800413021E902007A
S214004134F0B5114A114C124E00F00105E3695F0711
S21400414413D40DB9334213D103EA00078F4207D1C3
S2140041540B4A1A40002A14BF6FF001000020F0BD7D
S214004164013AEBD16FF00200F9E74FF0FF30F6E7C3
S2140041746FF00100F3E700BF80969800000003503C
S214004184020001000B4B70B5D96911F480310DD1D2
S21400419401244FF48072084E084DF46020462C64C7
S2140041A41A61FFF7C5FF3464EC6070BD6FF0010060
S2140041B4FBE700BF0000035000100350002003502C
S2140041C438B541F6713301220C4C0021E569E363EE
S2140041D40B4B05F48035DA600223606121202361ED
S2140041E4FFF7A6FF10B92120FFF7A2FF0122054B17
S2140041F4DA600DB10023E36338BD00BF000003504E
S214004204001003500020035070B5134C6061E3693E
S2140042145B071ED40E4656F8043B8D18A361AE42C7
S2140042240BD10423002121202361FFF781FF58B915
S214004234BDE870402120FFF77BBF08210846FFF742
S21400424477FF10B10423236170BD56F8043BA361C5
S214004254E5E74FF0FF30F7E7000003502DE9F84399
S214004264174B1646DA69894602F4803841F67132ED
S214004274DA630122074603F58053124DDA6066B905
S21400428430460122104BDA60B8F1000F03D000224A
S214004294A3F50053DA63BDE8F88307F500542C4011
S2140042A4E41BB44228BF3446494622463846FFF744
S2140042B4ABFF0028E5D12744A144361BDFE700BF47
S2100042C40000035000E0FFFF0020035045
S2140042D02DE9F04F4FF0FD0BC9B09A460DF11B09C2
S2140042E09DF8503108AFCDF80C90CDF808B0019786
S2140042F0059303890446009383790E4690464188C9
S2140043008288407810F0C4FD054650B10090A3881E
S214004310002062883C4911F0FBF8284649B0BDE809
S214004320F08F99F800002DF08AFB38B12846A38854
S2140043306288364911F0ECF88D25EEE75A46394684
S21400434099F800002DF023FB8346002855D0529B99
S2140043501BB1BDF84C3198424FD8002399F8009015
S2140043600793A9F14102012A5FFA8BFC36D838463A
S2140043700CF1FF3C5FFA8CFE254ADFF89CC07345C3
S21400438025DB059B07A94FF0040C0A6043BB1823E6
S2140043909FED1B7B5E431F486246831908363044F8
S2140043A083ED027B15F080FEB8F1000F01D088F88F
S2140043B00090BAF1000F01D0AAF800B0529B002B73
S2140043C0ABD05A463946184615F06EFEA5E710F8EB
S2140043D0011F013351400CFB01F2D0E7059B3BB1B6
S2140043E023464A466146384600960EF001FE94E79C
S2140043F0BCF1080FD8D83946C9E701258DE700BFBC
S214004400000000000000000040CF030075CF03004E
S214004410C59D1C8180100020930100010000000053
S2140044202DE9F04F93B0CDE90A32DDE91C630E9317
S21400443053EC102BCDE90801104619468DED060BFE
S2140044401E9D15F007F880B1DDE906014FF0FF323A
S214004450C74B15F027F840B9DDE906014FF0FF32EB
S2140044606FF4801315F000F870B1DDE908019DEDDA
S214004470060B0E9B1E95CDE91C63DDE90A3213B0D0
S214004480BDE8F04F00F08CB90022DDE906010023FC
S21400449014F0EAFF002800F03781DDE906A303F1F7
S2140044A0004BCBF30A5015F48063A0F2FF3008BF30
S2140044B006260F9314F0FCFC9DA3D3E9002314F00A
S2140044C061FD9DA3D3E9002314F0A6FBCBF31304F0
S2140044D0894644F07F5180460022A64B504641F460
S2140044E0401114F097FB96A3D3E9002314F04AFD7D
S2140044F002460B464046494614F08EFB14F0DCFF9D
S214004500044614F0D5FC90A3D3E9002380468946E0
S21400451014F038FD0022984B14F07EFB14F0CCFF0C
S2140045208BA3D3E9002307464946404614F02AFDEC
S21400453080463846894614F0BBFC87A3D3E900239F
S21400454014F020FD02460B464046494614F062FB36
S21400455002460B46CDE90C2314F014FDDDE90C23CE
S214004560804689461046194614F056FB0022CDE9CF
S2140045701001824B4046494614F02EFE0022804B26
S21400458014F04AFB02460B464046494614F024FE09
S21400459000227C4B14F040FB02460B464046494640
S2140045A014F01AFEDDE90C238046894600204FF001
S2140045B0804114F02FFB02460B464046494614F055
S2140045C02BFB02460B46DDE9100114F005FE07F250
S2140045D0FF3700226C4B14F01FFB00223B0514F043
S2140045E0D1FC52465B468046894614F05BFF0028A5
S2140045F040F08D80CDE90C8904F16303C62B8CBF97
S2140046000527042729051FD555A3D3E900235046BF
S214004610594614F03DFF002800F0838052A3D3E9EA
S21400462000235046594614F01FFF002879D0A642B2
S214004630D8BF00244FF00007C4BF341B04F1FF347A
S21400464026463C4645F480650E9B9F422CBF4FF0A5
S2140046500008A3EB070815F0020903D0002F18BFC7
S2140046604FF000083CB1DDE90C235046594614F0E3
S214004670B3FD82468B46DDE906010022002314F0D6
S214004680F3FE10B10BF100439B46DDE9080125F46B
S2140046900063CDE90183DDE90A324BEC10AB0096EE
S2140046A000F07EF802465FB3DDE9091315F0200F2F
S2140046B0089E00F101050CBF65204520B047DDE9E6
S2140046C008010523002205930A23002CCDE90232B7
S2140046D007F1FF374FEAD473B8BF64422A46019306
S2140046E004970A9B00942EF0A8FF0246B9F1000F2B
S2140046F006D00B9BC41A0B9B1A190E9BA34245D8D7
S214004700104613B0BDE8F08FDDE906ABC9E600221F
S214004710404649461A4B14F05FFD013CCDE90C01BA
S2140047206AE7002E90D00F9B002B8DD0013E8BE7C2
S214004730FB799F501344D33FB3C8608B288AC63F8B
S21400474061436F63A787D23F71A379094F930A40ED
S2140047501655B5BBB16B0240EF39FAFE422EE63F66
S2140047602D431CEBE2361A3F0000000080842E41E9
S214004770FFFFEF7F0000F83F0000E03F00002C4006
S21400478000002440000018400000F03F2020DDE933
S2140047900913089DA8470134ADE700BF00000000DC
S2140047A02DE9F04F5BEC10AB97B0CDE90501DDE9E4
S2140047B02048CDE90723504652465B465946229F7D
S2140047C014F048FE70B90323CDE902870193A44B89
S2140047D00093DDE90501DDE907232EF060FE17B042
S2140047E0BDE8F08F4FF0FF326FF480135046594605
S2140047F014F03AFE28B10423CDE902870193994BC1
S214004800E6E74FF0FF3250465946974B14F04AFE03
S21400481050B178074CBF04220322CDE902874CBF73
S214004820924B934B0192D3E7504689A3D3E90023DA
S214004830594614F037FE38B987A3D3E9002350460B
S214004840594614F011FE68B1DDE90723DDE90501DC
S2140048504BEC10ABCDE92187209417B0BDE8F04FA4
S214004860FFF7DEBD002200235046594614F0FCFD3B
S214004870B8B15B4652460020002114F0CBF9012364
S21400488082468B46099317F4806F08BF06243021B2
S21400489023460EAAA4F12009092B04D89946E41A47
S2140048A007E00990EFE7013B4B4502F8011BF3D107
S2140048B020245946504614F0FFFD6E4B054603EB88
S2140048C0C90393ED007B8DED0A7B14F0F1FA0246E6
S2140048D00B465046594614F09DF9DDE90A2314F0BC
S2140048E051FB02460B46CDE90C2314F00DFE06469E
S2140048F014F0CEFA02460B46DDE90C0114F08AF9F4
S21400490002460B46CDE90C2300225B4B14F0CAFD91
S214004910B8B10136304614F0BBFA02460B46DDE964
S2140049200A0114F0ABFD08B100260135B9F1000FFD
S21400493014D00A210EAB1A19202C40D13022A144E3
S21400494050E00022DDE90C014B4B14F08DFD0028F1
S214004950ECD10EB1F107E9D50136E7E7284614F0A9
S214004960A7FA02460B465046594614F053F9002261
S214004970414B14F079FD10B9013525F001050A21E7
S2140049800EAB1A19202C0AD095FBF1F001FB10553E
S214004990303502F8015B013405460028F2D107F0F5
S2140049A00302012A38D1B8F1000F35D0099A12B99E
S2140049B017F00C0F01D008F1FF38302223E0B6FBC9
S2140049C0F1F001FB1063092E03F1300309F1FF3902
S2140049D004F1010402F8013BB0D90646ACE70EA983
S2140049E00A551C46202CCAD04C4504F10103F6D1CA
S2140049F004F158020DEB02042E2204F8202C1C466B
S214004A00BDE71A550134A04506D9202CF9D1CDE9C9
S214004A10028701940EABDBE6202CF8D0099B3BB155
S214004A202D2204F158036B4403F8202C0134EEE7E2
S214004A307A0704D504F158032B226B44F4E73B07AE
S214004A40E5D504F1580320226B44EDE7AFF3008070
S214004A500000000065CDCD410000000065CDCDC151
S214004A60C6EB0300CAEB0300FFFFEF7FBDEB0300BE
S214004A70C2EB0300883304000000E03F00000000A3
S214004A8070B58EB02C22002103A815F06FF96423B0
S214004A904FF002320893CDE905230B2301218DF850
S214004AA034305B4B8DF810101D880D4040F0A98007
S214004AB0084632F01BFE0A22564B574C1A704FF42B
S214004AC02873ADF812304FF0FF332360534B544930
S214004AD01B8820460B82534B534A1B68CD828B6142
S214004AE0524B0D621B884B82514B1B68CB611BF0EF
S214004AF02BFD20B14FF41B714E4833F08FFE05217D
S214004B0020682EF08DFF20B140F27D21494833F019
S214004B1085FE206814F03AF8474B206819682FF095
S214004B2042F80C2533F04AFA6843099033F046FA07
S214004B3068430DEB05010790206815F059FF20B17A
S214004B4040F295213B4833F069FE25681DF034FF9E
S214004B500022014628462FF09EF820B140F2972109
S214004B60344833F05BFE40F20353344D344E2B8012
S214004B70052396F90000AB707F2801D11BF0DAFD03
S214004B803378EB7033F01AFA00EB80008000A880D0
S214004B9033F014FA0023C0004FF0FF31E880AB601A
S214004BA04FF0FF3018A3D3E9002332F0F1FE254979
S214004BB020682FF029F8206802A92FF045FC20B1C4
S214004BC04FF434711B4833F029FE042220680DEBA5
S214004BD002012EF0BDFF042804D040F2D72115486C
S214004BE033F01CFE01A901202EF0BEFB06F066FA8B
S214004BF001201CF023FA2AF00CFC1CF049FA1BF0EA
S214004C0031FD0EB070BD00BF0A0020FF4203000059
S214004C102A52002099580020504C0020364D04009F
S214004C20C85E00203C4D040015770300344D040098
S214004C30384D04008F240400B05C0020444C002053
S214004C408F610020897703000348044B834202D01B
S214004C50034B03B118477047BC610020BC610020BD
S214004C6000000000064B0749C91A891048BF0131E9
S214004C70491003D0044B0BB101481847704700BFDA
S214004C80BC610020BC6100200000000010B5064C8E
S214004C90237843B9FFF7D8FF044B13B10448AFF3AA
S214004CA000800123237010BDB01500200000000016
S214004CB0BC70040008B5044B1BB104490448AFF3AC
S214004CC00080BDE80840CDE700000000B4150020D5
S214004CD0BC700400A3F5803A704700BF154B002B4C
S214004CE008BF114B9D46FFF7F5FF00218B460F4688
S214004CF01148124A121A15F039F80C4B002B00D046
S214004D0098470B4B002B00D098470020002104004A
S214004D100D000B4815F01EFB15F000F820002900CA
S214004D2029F07DFC15F004FB0000080000000000E0
S214004D30000000000810002008100020F058002096
S214004D4061A3010038B500F00FFF012805D000F080
S214004D500BFF022801D000F01FFF064D2B783BB951
S214004D6000F002FF0128044602D129F04FFC2C7007
S214004D7038BD00BF0853002070B50C46088800F008
S214004D80DDFC94F844300546834214D004F11C063A
S214004D90304629F0D7FB84F8445029F0D7FB32215F
S214004DA0A064304629F0C9FB94F844100248BDE8D8
S214004DB0704013F023BE70BD688C030010B5044627
S214004DC0008800F0BBFCA37884F84400834202BF4E
S214004DD00123E3702371074B04F11C00C4E9073478
S214004DE000F0A2FD224620880349BDE8104000F0EE
S214004DF0B7BC00BF37E30200794D000070B5C3783A
S214004E0004460D461646002B33D1C1B1204813F098
S214004E10F5FDE36CA6600BB1E06D9847E368F61A03
S214004E2063699E4222D2217E1A480131C9B2217698
S214004E3013F0E4FDA36D13B1217EE06D9847E57095
S214004E4029F084FB15B3237903BB238AF3B1A26848
S214004E50801A83421AD201230F48237113F0CEFD25
S214004E60236D9BB1E06DBDE87040184701232376A3
S214004E70E5E70029E3D1094813F0C0FD636DE6605D
S214004E802571002BDBD0E06D9847D8E770BD00BFDA
S214004E90858C0300968C0300C48C0300B18C030041
S214004EA0F8B51E46838804460D4617460BB1868025
S214004EB0F8BD8178008829F05FFA0123E370084B7B
S214004EC0E5802781A680C4E903340C34204600F030
S214004ED02BFD29462046BDE8F84029F02EBB00BF32
S214004EE083E30200816810B5B1FA81F104464909EE
S214004EF0008829F0B8FAA168A088B1FA81F14909BA
S214004F0029F0B1FA034B1A68A24204BF00221A60C5
S214004F1010BD00BFCC15002010B50446014604485D
S214004F2013F06CFD2046BDE81040FFF7DBBF00BF66
S214004F30DA8C030070B50446D0E90030E2680F4E04
S214004F40002A18BF1846336804F1100513B10C4B3D
S214004F501B7863B1217A80B229F085FA7D21094B4E
S214004F60346023612846BDE8704029F0E6BA06485A
S214004F7013F044FD054B32212361F3E7CC150020E6
S214004F8009530020194F0000F38C0300914F0000D6
S214004F9010B50446034813F031FD2046BDE8104026
S214004FA0FFF7C8BF298D030010B50446E0B10F48CF
S214004FB013F024FD0123E360636853B9217A208847
S214004FC029F051FAA36B7BB1E06B0121BDE81040DC
S214004FD018472046FFF786FF04F1100029F0B2FAC2
S214004FE02046FFF7A7FFEDE710BD00BF3F8D03008B
S214004FF010B5044630B3144813F000FDA1682088AD
S214005000B1FA81F1490929F02EFA0023E3606368BA
S2140050106BB9A1682088B1FA81F1490929F023FA11
S214005020A36B7BB1E06B0021BDE81040184720461B
S214005030FFF758FF04F1100029F084FA2046FFF726
S21400504079FFEDE710BD00BF4A8D030010B504469A
S21400505068B1074813F0D2FCE36820461BB1BDE8F0
S2140050601040FFF7C5BFBDE81040FFF79DBF10BD5D
S214005070568D030010B50E4C0E48214613F0BEFCAC
S21400508082210D4813F0BAFC82210220A21E00F0F5
S21400509001FC014630B134F8022C0848BDE8104047
S2140050A013F0ACBC0648BDE8104013F0A7BC00BF28
S2140050B0964D0020658D0300808D03008B8D0300C8
S2140050C0CF8D030038B50E4C82212246022000F018
S2140050D0D1FBA51C014650B122880A4813F08EFC6D
S2140050E04C222846084914F0DFFF4B23238035F86E
S2140050F0021C064A0648BDE8384013F07FBC00BFD5
S214005100944D0020DA8D03005A8E0300964D002041
S214005110388E030010B504460146074813F06EFCAF
S214005120012C064803D1BDE8104029F082B9BDE83D
S214005130104029F080B900BFA68E0300145C002042
S21400514070B50024184D194E3378A34217DC00249E
S214005150174D184E3378A34217DC0024164D174E11
S2140051603378A34217DC00F0FFFC0128144818D15E
S21400517029F05FF9BDE87040124800F007BD2846E8
S214005180FFF71CFE01346035DEE7284629F037F9C4
S21400519001343435DEE7284629F06AF90134403513
S2140051A0DEE729F048F9E5E7941C00200D530020BF
S2140051B0741E00200E530020541B00200C530020A9
S2140051C0145C0020155100002DE9F04FDFF85883DD
S2140051D085B0FFF777FF03A8CDF80C8029F06CF9AF
S2140051E0054614F03FFCBF4CC2B21F2A627004D9B9
S2140051F0BD4813F003FC00F04FFA2946A01C14F03B
S21400520053FF03A829F058F9054614F02BFCC2B248
S2140052101F2A84F8212001D9B448EAE7294604F178
S214005220220014F041FF03A829F046F900260446A0
S214005230AF4FDFF8F8922578002D55D1DFF8F092C1
S214005240AC4FFFF77DFF99F800203978AA4813F095
S214005250D5FB99F800303E78DFF8A4B21E44F6B2CB
S214005260012E38BF01265B46DA464FF482714FF6B0
S214005270FF720135B5421D7059809A8003F10C0308
S214005280F7DB0C259D4C9E499648CAF8084000F06E
S21400529027FDDAF808309AF8070005FB003000F022
S2140052A037FB9AF80730974801338AF8073000230F
S2140052B03A789A4200F3718100254FF00C0B924B1E
S2140052C099F80020AA4200F37B8131468C4800F012
S2140052D08DFB039B43451A4640F08C818B4805B0F6
S2140052E0BDE8F04F13F08ABB532D0FD163784C2BDB
S2140052F040F0C780A378502B40F0C3800122844B37
S2140053001A7003A829F0D8F8044694E7423D112DF8
S214005310F7D801A353F825F07B5300000353000091
S2140053200353000003530000035300000353000020
S2140053300353000001540000035300000353000011
S214005340B5530000615300000353000003530000F0
S214005350035300000353000035550000835400003B
S214005360644B012019780023664A994202F1A40290
S214005370C7DD02F8A20C0133F7E7601C00F062FA02
S2140053800546E01C29F0B5F801210246284600F043
S2140053908FF960223B785F485A43811885524FF454
S2140053A0FA620A824FF448724A615B4A01330A6520
S2140053B03B70A6E7601C00F045FA00224FF0340B65
S2140053C08246564E114600F073F93378544D0BFB67
S2140053D003F325F803A0E818E378693B18BF012318
S2140053E0837029F00CF800214E4A33785160012171
S2140053F00BFB03550B44337015600E46117480E7A3
S214005400601C00F01FFA00221146834600F050F997
S2140054103422424DDFF808A12B7853432AF803B014
S2140054200AEB0300E378693B18BF0123837028F07A
S214005430E6FF3549002308468A6BC2B93C2202FBC8
S214005440030034222B7802FB03A383635EB9354A3C
S2140054503346114652F8040B78B934202A7800FBFC
S21400546002A241F823202B7801332B7049E7013341
S214005470042B01F13C01DFD1E8E70133042BE9D12D
S214005480F1E7601C00F0DEF90546E01C29F031F873
S21400549001210246284600F00BF9602339781D4AA0
S2140054A04B43D418D5524FF44873A420114D238291
S2140054B063612B78DFF84CC058430CEB00020CF805
S2140054C000304FF40070508003201071907132202D
S2140054D00133DBB201315371946082F8A000397059
S2140054E0C3E700BF345B0020C58E0300DC8E0300DC
S2140054F00D5300200B530020EC8E030048160020AE
S214005500D0150020B8180020C8170020218F0300EF
S21400551009530020941C0020A3E402000E53002030
S214005520741E0020145C0020964D00200C530020B2
S2140055300A530020601C00F085F9002282461146BE
S21400554000F0B6F899F800302F4D990145F801A003
S214005550012105EB83129160E27862B1E01C00F055
S21400556071F900220446114600F0A2F899F80030BE
S21400557005EB831254603C212448254C027805EB49
S21400558083155143013304EB010C62540132CCF80D
S214005590345089F800300270B3E62BB11BF8052CA6
S2140055A005FB0244CBF8084059460193009000F0F2
S2140055B019FF019B00980133A4300BF10C0B77E622
S2140055C03978184629444A1E0BFB02A2D2790BFBF7
S2140055D001A10BFB024400938C6000F011FD3978AA
S2140055E00C4829440BFB01A100F068FC009B013528
S2140055F03C3365E613F8011D00297FF46BAE3B21B2
S21400560002F8011C66E600BF541B00200A53002067
S214005610C8170020481B002007B5022101200DF105
S214005620060200F027F938B9044813F0E7F9BDF888
S214005630060003B05DF804FB0020FAE73E8F030087
S21400564007B50221ADF806000DF10602012000F0B4
S21400565021F9014610B1034813F0D0F903B05DF804
S21400566004FB00BF5F8F030010B5FFF7D5FF0446AD
S2140056700146074813F0C2F90121064813F0BEF9A7
S21400568024B9BDE810400120FFF7DABF10BD00BF07
S2140056908F8F0300A18F030008B5044813F0AEF9FE
S2140056A000F008F928F03FFF28F03AFFB78F030014
S2140056B00B460E4910B40446087808B90120087055
S2140056C00B48210A405CE1B273B1012A04D0032AD8
S2140056D008D00023012201E0134602225DF8044BA5
S2140056E003F01EBF0023F8E70422F7E7105300205C
S2140056F0862504003021074A030AD35C01224B4367
S21400570041F21001C0B203F1A043824003F57033AA
S2140057105A507047862504003021074A030AD35C96
S21400572001224B4342F21001C0B203F1A043824073
S21400573003F570335A50704786250400064A030A5C
S214005740D25C30235A43054BC0B29B5823FA00F074
S21400575000F00100704700BF8625040014C0035007
S2140057602DE9F04F304B0646187885B008B9012071
S21400577018702E4C23783BB9CDE9021229F0DEF8DA
S214005780DDE90212012323702948330AC75C00248E
S2140057903020284D5FFA86F800FB04F315F803C0A6
S2140057A0BCF1000F38D101205FFA84F9E8544FF0BD
S2140057B0300B0BFB04F005EB000A1030CAE90212AE
S2140057C028441D49AAF8026008F08AFB414638467C
S2140057D003F0E6FE022825D10BFB07FB174B53F818
S2140057E00B3023FA08F313F0010F14BF0122032233
S2140057F0302303FB045348461A711149524629F0D8
S2140058009FF801234A4641463846CDE9003303F067
S21400581041FE05B0BDE8F08F0134102CBCD1FF244A
S214005820A146C4E70022E3E7105300200F530020F0
S21400583086250400781F0020D3E4020010C0035021
S214005840E5E4020080B10278A2F14103032B0BD8F5
S21400585040783038C0B2082806D8054B134413F8F1
S214005860413C40EA032070474FF6FF70704700BF88
S2140058708625040008B50B4642B101460448006878
S21400588002F0CCFCBDE8084028F044BE022008BD6B
S214005890A85C002008B50B4642B1014604480068E3
S2140058A002F048FEBDE8084028F034BE022008BDDD
S2140058B0A85C00202DE9F0414FF000088CB0134F93
S2140058C002AEFF2300930A2243463146386829F089
S2140058D04EFBC0B1354606EB800405E055F8043BA8
S2140058E0434528BF03F10108AC423868E9D9296866
S2140058F002F0A8FF0028F1D02D28EFD00CB0BDE8AC
S214005900F04128F007BE0CB0BDE8F081A85C00208E
S21400591028B1034B0360034B43600023836070474A
S21400592019000003285C0020FF2307B50021044A65
S2140059300093083008F056FA03B05DF804FB00BF89
S21400594035E502000B460449024608680349097813
S21400595008B128F002BE70478022002012530020B3
S214005960F8B50C4618B122210E4832F057FF2468CD
S21400597023685E795F8830463946FFF7E3FF08B94B
S2140059808120F8BD8568002DFAD0A368E27C3046F9
S214005990F9B2A84704460028F2D12CF09CFD204618
S2140059A0EFE700BFC48F0300F8B515460D4A04465E
S2140059B010680D4A0B46117850B1224628F0CDFDEE
S2140059C0034628B100210C27C678B14201DB00202F
S2140059D0F8BD07FB01F45A681019125BAA42F7D00B
S2140059E00131F2E780220020125300202DE9F74F04
S2140059F004460D460026444B444F1860444B19702D
S214005A0033010021F85C01360FF0AEF80C2EF7D10A
S214005A100C2D28BF0C254FF0000901953B4EDFF8F2
S214005A20FCA03C4DDFF8F880019B4B4502DC03B040
S214005A30BDE8F08F23784FF0000B337063887380D7
S214005A40A388B380A379C6F80880B371E379C8F851
S214005A50005088F804304FF00003A768A8F8063016
S214005A60E3795B450ADC012116F8100B0FF07CF891
S214005A7008F1080809F101090C34D5E74FF00003D6
S214005A8038886B812880F9784FF0000C2981BB7824
S214005A90C5F804A0002B00930CBF802340232B7373
S214005AA07A680AF10C03614512DC0C2303FB01AA99
S214005AB0BB6843B1009A4FF6FF71B2FA82F2164BFA
S214005AC052092CF098FC14350BF1010B0C37C7E784
S214005AD0B2F800E00CF1010C23F80CEC92F802E0AE
S214005AE00C3303F816EC92F804E00C3203F815ECCD
S214005AF012F809ECBEF1010F14BF4FF0100E4FF074
S214005B00110E03F814ECCEE7802200203439002072
S214005B1012530020842800206159000084220020AF
S214005B20042B0020014B1860704700BF7C22002029
S214005B3070B5128805460E46FFF736FF044670B16C
S214005B4002790499806813F0BBFF064B1B680BB9FB
S214005B50002070BD28462288F1B29847F8E78620D4
S214005B60F7E700BF7C22002008B50EF03DF90228BA
S214005B7006D0012806D0044B18784000C0B208BDF5
S214005B800120FCE70220FAE711530020014B1860C1
S214005B90704700BF78220020034B1A781AB90122FA
S214005BA01A700AF0A1BA7047115300200022064B63
S214005BB010B51A70054B1C682CB1FFF7D5FF2346AD
S214005BC0BDE81040184710BD115300207822002071
S214005BD037B50446002832D00EF006F9022830D138
S214005BE060892CF0D8FFE079237A003818BF0120AE
S214005BF0012B637A08BF40F008000BB140F010009C
S214005C0063890BB140F00400257CA188A2790DB110
S214005C10E36873B90C4B0FF005FB217808460FF0CC
S214005C207DFB2CF0E1FA002814BF0320002003B00F
S214005C3030BDCDE90035054B0FF0F4FAEDE7022054
S214005C40F5E70120F3E700BF8DDB03006EAC030031
S214005C50034B044A5B7C012103201370FFF71ABE36
S214005C60145C00201353002010B50446FFF7F0FF25
S214005C70B4F57F4F10D10D4B1A88134400229A704A
S214005C80FFF7F8F90A48FFF74FFEBDE810404FF45B
S214005C909671074828F051BC4FF601739C4204D118
S214005CA0BDE81040034828F0ACBB10BD944D002062
S214005CB04C5C0020145C002010B5074C01212246E5
S214005CC00320FFF7D7FD28B92378044A003B18BF06
S214005CD00123537410BD00BF13530020145C002032
S214005CE00822F8B535244A4B30251A7032221C712A
S214005CF031245A70DA709A714FF400125C711C727B
S214005D00444C4264C464444C01220465434C9D7078
S214005D108465434CDD71C465424C85184466424C2C
S214005D20C5678466414C424D0467424CC0F88050BB
S214005D304467202480F8784080F8844000F12104ED
S214005D40C0F888403C4C80F84820C0F88C403B4C5B
S214005D5080F85420C0F89440394C80F8602080F8D1
S214005D606C2080F89020C0F89840364CC0F8B830C8
S214005D70354BC0F8A440C0F8BC300E24022380F88F
S214005D80A84080F8C030314C314BC0F8AC40C0F869
S214005D90C430304C304BC0F8B040C0F8C83009248E
S214005DA082232E4D80F8B44080F8CC302C7C2C4BCF
S214005DB080F89C20C0F8A000C0F8D03044B1294B31
S214005DC080F8D820C0F8D43005F11103C0F8DC30D4
S214005DD00C224FF0000CCB798F685A4327F802C08C
S214005DE0BE180122443013440C347060B270F47054
S214005DF0CB71FFF761FFFFF7B7FE012806D12B7CBA
S214005E0023B1BDE8F840154828F0FBBAF8BD00BF3E
S214005E10145300209E250400010020009D25040048
S214005E20020020009C250400030020009B2504009F
S214005E300500420004004200070030009A250400D6
S214005E401200100100404200FDFF21008A250400D8
S214005E50982504000600420000FF4401145C002060
S214005E60944D002001FF100170B50D4606461446FD
S214005E7013460A4601460D4812F0C0FD25B92046D5
S214005E80BDE87040FFF7F0BE072D05D1214630462D
S214005E90BDE8704000F06CBA062D05D121463046AC
S214005EA0BDE8704000F060B870BD00BF15900300FC
S214005EB00148FFF737BE00BF695E00004FF4C0130D
S214005EC030B5036001230C220371064B8C68836097
S214005ED0CB795A43A518686003480133A050CB71AC
S214005EE030BD00BF9F2504000400010102290246C0
S214005EF008B50ED004D839B9104628F0CBFB06E01A
S214005F004029F9D0412907D1104628F0B9FB0020D6
S214005F1008BD28F0C9FBFAE7014812F06FFDF6E766
S214005F204890030008B511461A46034B53F8200064
S214005F30FFF7DCFF002008BD642B0020426B094BF6
S214005F40D2681A7082785A70C2789A70826B0AB1D8
S214005F50D278DA70007804210930024AC0B2FFF71E
S214005F6099BC00BF1D530020024B53F8200028F0B8
S214005F70B7BB00BF642B002038B504460078064D3A
S214005F8009302A460421C0B2FFF774FC18B96B78B2
S214005F90A370AB78E37038BD1D53002038B50446B7
S214005FA00078164D09302A460421C0B2FFF762FC7D
S214005FB018BBA3782A78022B12D004D893B92046AF
S214005FC028F068FB01E0FF2B10D0A06BA8B1E378A7
S214005FD0022B12D1EB7863B1BDE8384028F0F7B950
S214005FE0002AECD1204628F04BFBEEE7002AF9D138
S214005FF0E5E7BDE8384028F0F5B938BD1D53002068
S214006000F8B504460B78214A0D4642F82300437043
S214006010FFF7B2FF636B1E4ADC639A632046FFF706
S214006020BDFF204628F010FB4FF480136360042366
S2140060302372636BA06B0C33E360164BA21C2361C8
S2140060400123A261237558B1134A84F82030E26117
S214006050E21C6262114A84F82C30C31CA2622363DD
S2140060600C210627EB79AE6859430028775206EBD9
S21400607001020CBF02210421D17001219170084950
S2140060800434013354609160EB71F8BD642B00203A
S214006090BDE602000340300101FF300102FF10019F
S2140060A0255F0000024641793C20084B013900FB81
S2140060B00130D378042B08D8012B04D80BB928F06C
S2140060C0DFBA28F0E7BA28F0EFBA7047C817002002
S2140060D0024641793C20084B013900FB0130D37859
S2140060E0042B08D8012B04D80BB928F0D3BA28F013
S2140060F0C7BA28F0D9BA7047C817002030B587B09D
S21400610004464579FFF730FD012822D1E2786B1E60
S214006110042A1ED8DFE802F00433031F29001046C5
S21400612063784FF480728DF804304FF48273ADF8C4
S21400613006300623ADF8083001238DF80B30002317
S2140061408DF80A0001A8CDE903238DF81430FFF777
S2140061503FFD07B030BD3C210A4A01FB03235B6BC1
S214006160D868003818BF0120DAE73C21054A01FB51
S21400617003235B6BD868B0FA80F04009D0E70020B4
S214006180CEE700BFC817002030B587B00446457973
S214006190FFF7EAFC01282AD1E3786A1E042B26D8EA
S2140061A0DFE803F00C0C0C0327003C21164B01FB28
S2140061B002335B6BDB68003B18BF012362788DF807
S2140061C00A308DF804204FF482720123ADF80620C1
S2140061D006228DF80B30ADF8082000234FF48072AD
S2140061E001A8CDE903238DF81430FFF7F1FC07B0C2
S2140061F030BD3C21044B01FB02335B6BDB68B3FA1A
S21400620083F35B09DAE700BFC817002010B586B035
S2140062100446FFF7A9FC012812D16378094A8DF8D5
S21400622004304FF48273ADF806304FF48073CDE936
S2140062300223002301A804938DF81430FFF7C8FC4E
S21400624006B010BD0800070110B586B00446FFF77B
S2140062508BFC012820D16278104B8DF804204FF477
S214006260827294F8A01094F8A10059701870ADF8D6
S214006270062004934FF480720223094901A88DF882
S2140062801430CDE90212FFF7A3FC94F8A130013BCD
S21400629018BF012384F8A13006B010BD215300209A
S2140062A00800050110B583780446EBB10379022B8C
S2140062B007D143793C200D4A013B00FB032028F020
S2140062C0F3F9A379022B02D12046FFF717FF2046E9
S2140062D0FFF7BAFF02236078A4F86C305522BDE8B9
S2140062E01040122128F05BB910BD00BFC81700206F
S2140062F04388094A082113808388538083681B8A51
S214006300938090F8A03093718379D371007804302D
S214006310C0B2FFF7BFBA00BF164E002038B50D4614
S21400632004460178104812F069FB4FF602739D424E
S2140063300CD163791BB10D4A12789A4201D201231F
S21400634063712046BDE83840FFF7D2BFB5F57F4FF2
S214006350F7D1204628F02CFAA278A368022A0CBFB0
S214006360012200229A70ECE75E9003000A53002098
S214006370024B53F82000FFF7D1BF00BF8C2B002044
S21400638038B504460078134D04302A460821C0B2BA
S214006390FFF770FA20B1BDE838400F4812F02EBB68
S2140063A02B8863806B88E978A380AA88A3681A8202
S2140063B0AB7984F8A030EB79A37119B1074B1B7841
S2140063C08B4205D2064812F019FB2378013363711D
S2140063D038BD00BF164E0020789003000A530020F8
S2140063E0A1900300F8B504460B784A4A0D4642F8D9
S2140063F023004370FFF7C4FFA268474B0227D3640D
S214006400464B0C265365464BA11C1365454B464828
S214006410C2E916344FF44013E36001236161E16280
S2140064204249103221632265211D414AA163414938
S214006430626504F1A002A061E163E265E01C611DF3
S2140064403D4A206261643D483D492266A21D237490
S214006450237784F8283084F8343084F84030A164F8
S21400646084F84C7084F8583084F864306062A26611
S214006470E879AA6806FB00F104EB060E02EB010CB5
S214006480CCF804E04FF0060EDFF8C4C042F801C0B6
S214006490C118C9B2714342F801E002EB010C0021B9
S2140064A0CCF80410DFF8ACC084F88030C4F870C0B4
S2140064B084F89830DFF8A0C0224BC4F878C0C4F83F
S2140064C09C30DFF898C0831CDBB2C4F87CC07343F2
S2140064D0DFF88CC084F8747084F88C7004F16C0754
S2140064E0C4F884C0C4F89070DFF878C0164FC4F8BB
S2140064F088C0C4F89470D71870347C60134CD4509D
S214006500C31CDBB273430826D4180430D65061602F
S214006510E871F8BD8C2B00201DE702005FE7020043
S214006520A562000013E702001000300101FF3001F1
S21400653004FF200102FF200105FF300100FF3001AB
S21400654003FF2101A22504006F00180012000104B9
S214006550070001084A002100A02504005100100091
S214006560A32504005500210000239B6AB3F5804F45
S21400657003D21968064A914203D000230370836051
S2140065807047012202709A689B694260F7E700BF75
S21400659007B0CD5E024B034A1A6029F0B5BC00BFB7
S2140065A00000002002020FF073B53F4B04461A7835
S2140065B01AB102221A7002B070BDCDE9002200287E
S2140065C0F9D001261E7032F037F8384D384B186077
S2140065D017F01CF82B785BB902F0D8F940B93548AB
S2140065E00823354A3549006801F018FE00B92E70B8
S2140065F0334B5A68E260334A9A601A6E22605A6ECB
S2140066006260D3F87021A2601B6E5C042CD52E4A03
S214006610D368D807FCD42D4B1A68531C29D04FF4E6
S214006620801393402A4A13660423294C4FF0804275
S21400663023664FF480632366102323664FF40053CB
S2140066406846236601A92266636628F0C9F8009B9F
S2140066502366019B63662B78002BACD0164B1A681A
S21400666022665B686366A6E71A4AD368D907FCD435
S214006670D1E7194B1B78002BD6D1184B5A68144B10
S21400668012B94FF480121A66154A526812B94FF4BE
S21400669000121A66134B5B68002BC5D14FF48002BC
S2140066A00B4B1A66C0E700BF24530020255300207A
S2140066B0C42B0020A85C0020C82B00200071080016
S2140066C00080004455CEAC0000000440745C0020FE
S2140066D00090004400000450235300200080055022
S2140066E000C005500000065038B5224D04462B78F1
S2140066F0012B02D001232B7038BD0028FCD028F0D7
S21400670094F8013009D028F090F840F2011398422E
S21400671003D0194AD368DB07FCD42268174B1A66E5
S21400672062685A66A268C3F87021E268D40744BF5C
S21400673000229A60124B1A68013213D1114A12785D
S21400674082B911494968C80748BF1A600F4A52689B
S214006750D10744BF01221A600D4A5268D20744BFCF
S21400676002221A6016F05AFF0A4B186831F05FFFD3
S2140067700023C0E7245300200000044000800044AB
S214006780745C0020235300200080055000C0055094
S21400679000000650C42B002070B50024A36AB3F591
S2140067A0804F23D21A68134B9A421FD1124E337869
S2140067B013F0FD0518D14FF480341048FFF7F4FEAF
S2140067C0032004F027FA0E4B0320DC6004F006FAE0
S2140067D00C4B1C61AB6ADB69984704460748FFF719
S2140067E083FF0CB901233370204670BD4FF48174CB
S2140067F0FAE700BF07B0CD5E23530020B42B00207D
S21400680000A000440090004413B5204B1B7803B949
S214006810FEE700231E4CCDE900336A4608231D49D7
S214006820206801F0FBFCF8B91B4AD2F84031D2F8D8
S21400683040211F2B4FF0010311D9203A9340019AB3
S2140068401A43019208236A461249206801F072FE34
S214006850124B134A1A6029F057FB02B010BD934042
S214006860009A1A430092EDE72D28F1D10A4AD2F891
S2140068704031D2F840211F2B4FF0010385BF203A4C
S21400688093409340019398BF0093DBE72453002086
S214006890A85C002000710800008000440000002072
S2140068A00B020FF038B50025AB6A0446B3F5804FEF
S2140068B010D21B6BB3F5804F0CD20748FFF774FE5F
S2140068C0AB6A20461B6B5B689847BDE838400248B9
S2140068D0FFF70ABF38BD00BFD02B002013B5002439
S2140068E0A36A0190B3F5804F13D21B6BB3F5804FAC
S2140068F00FD20948FFF758FEA36A01211B6B01A8B7
S2140069009B69984704460448FFF7EEFE204602B00F
S21400691010BD4FF48174F9E7D02B002070B5002627
S214006920B36A0446B3F5804F0D4612D21B6BB3F51F
S214006930804F0ED20848FFF737FEB36A20461B6B1F
S21400694029469B69984704460348FFF7CDFE204634
S21400695070BD4FF48174FAE7D02B002070B5002686
S214006960B36A0446B3F5804F0D4612D21B6BB3F5DF
S214006970804F0ED20848FFF717FEB36A20461B6BFF
S2140069802946DB69984704460348FFF7ADFE2046D4
S21400699070BD4FF48174FAE7D02B0020F8B50027BD
S2140069A0BB6A0446B3F5804F0D46164611D21B6BE4
S2140069B07BB10948FFF7F8FDBB6A20461B6B3246E1
S2140069C029465B6A984704460348FFF78DFE204633
S2140069D0F8BD4FF40174FAE7D02B002070B50026FE
S2140069E0B36A0446B3F5804F0D4612D21B6BB3F55F
S2140069F0804F0ED20848FFF7D7FDB36A20461B6BC0
S214006A0029469B6A984704460348FFF76DFE2046D2
S214006A1070BD4FF40174FAE7D02B0020F0B50027C4
S214006A20BB6A0446B3F5804F0D461646ADF5337D7A
S214006A3020D21B6BB3F5804F1CD21048FFF7B4FD75
S214006A40BB6A20461B6B40F2C1225B6A01A99847CD
S214006A50044630B10948FFF747FE20460DF5337D62
S214006A60F0BD836A32461B6B2946DB6A01A898474D
S214006A700446EFE74FF40174EFE700BFD02B002089
S214006A8010B50024A36AB3F5804F10D21B6BB3F584
S214006A90804F0CD20748FFF787FDA36A1B6B1B6B62
S214006AA0984704460348FFF71FFE204610BD012402
S214006AB0FBE700BFD02B0020F0B58FB0044601A83E
S214006AC00E461546FFF7EEFE9DF80C30012B12D150
S214006AD0B5F5402F27D8B4F5402F24D86319B3F561
S214006AE0402F20D821462A46304613F0DDFA0024EF
S214006AF020460FB0F0BD0027BB6AB3F5804F15D215
S214006B001B6BB3F5804F11D20A48FFF74DFDBB6AE9
S214006B102A461B6B314620465B6B98470446054861
S214006B20FFF7E2FDE4E740F20244E1E740F2011439
S214006B30DEE700BFD02B0020F0B58FB0044601A8DA
S214006B400E461546FFF7AEFE9DF80C30012B1FD102
S214006B50B5F5402F06D8B4F5402F03D86319B3F522
S214006B60402F13D940F2024420460FB0F0BDE25841
S214006B70013225D104339D42F9D82A4631462046B3
S214006B8027F083FE0028EDD00024EDE70023F2E78F
S214006B900027BB6AB3F5804F15D21B6BB3F5804F49
S214006BA011D20A48FFF700FDBB6A2A461B6B314626
S214006BB020469B6B984704460448FFF795FDD3E7AD
S214006BC040F20344D0E740F20114CDE7D02B00207A
S214006BD070B58EB0044601A80D46FFF763FE9DF81B
S214006BE00C30012B22D144EA0503C3F30C03002B1F
S214006BF033D1B5F5402F04D940F2024420460EB0FA
S214006C0070BDB4F5402FF7D82544B5F5402FF3D81E
S214006C10204604F5005427F031FEAC4202D000288E
S214006C20F6D1E9E70028E7D00024E7E70026B36AB4
S214006C30B3F5804F14D21B6BB3F5804F10D20A48C1
S214006C40FFF7B2FCB36A29461B6B2046DB6B9847FE
S214006C5004460548FFF748FDD0E740F20444CDE778
S214006C6040F20114CAE700BFD02B0020BFF34F8FBD
S214006C700549064BCA6802F4E0621343CB60BFF3D3
S214006C804F8F00BFFDE700BF00ED00E00400FA05EF
S214006C9070B5D0B1C9B10E4E431E013913F8014F7D
S214006CA02046325D02F00302012A11F8012F08BFC8
S214006CB004F12000B55C05F00305012D08BF203265
S214006CC0801A01D1002CE9D170BD0120FCE700BF7D
S214006CD0254C04000348044A0449121A921027F06F
S214006CE020BE00BF34410000D04200008C59002076
S214006CF008B5154B83F30A8800F030F8FFF7EAFF73
S214006D00124B13498B4212D30020124B12498B426E
S214006D1018D3FDF7E3FF186850F82240586840F88B
S214006D202240013298688242F5D30C33EAE700220B
S214006D30F8E71C6844F8220001325C68A242F8D3E7
S214006D400833E4E70022F8E708000020C4700400D7
S214006D50D0700400D0700400D0700400124B134AA8
S214006D6070B59A60D3F88820114D42F47002C3F8CB
S214006D7088206FF0010205F50054226641F2FF728A
S214006D8062660222C3F8D020BFF34F8FBFF36F8F27
S214006D904FF44036032003F03DFF0320E66003F087
S214006DA01DFF2E6170BD00BF00ED00E0004000003A
S214006DB000800044014B1860704700BF7C5C0020D8
S214006DC0054B1860054B1B6F03F00703032B01D11F
S214006DD02FF08CBD704700BF845C00200080005000
S214006DE02DE9F04104464FF001080C250D4E0CB974
S214006DF0BDE8F08194FAA4F0B0FA80F00F2808FA03
S214006E0000F2C8BF103824EA0204CABF05FB0062BD
S214006E1005FB0062B4325768002FE8D09168C0B214
S214006E20B847E4E7E02B002008B50C4831F0A2FC98
S214006E30192003F0E1FE28B1192003F0EBFE19201B
S214006E4003F0CCFE1A2003F0D7FE28B11A2003F078
S214006E50E1FE1A2003F0C2FE002008BD0028040050
S214006E602DE9F0410E461746054618B30F2923D8DC
S214006E700378DBB1013BDBB2022B19D8104AD35C96
S214006E806A78D340DB0717D50E4BD3F81043ACB95E
S214006E9031F0D2FB80463A462846314602F03AFCAC
S214006EA0404631F0C4FB2046BDE8F0817F23E7E78B
S214006EB00023E5E72224F6E72124F4E70224F2E79C
S214006EC0F425040000C0035010B5044610B3037840
S214006ED0E3B1013BDBB2022B1AD8104AD35C6278CE
S214006EE0D340DB0718D531F0A7FB01226178237861
S214006EF08A4030214B4341F2100103F1A04303F5D1
S214006F0070335A5031F093FB002010BD7F23E6E724
S214006F100023E4E72220F8E72120F6E7F425040022
S214006F2010B5044610B30378E3B1013BDBB2022B85
S214006F301AD8104AD35C6278D340DB0718D531F0F4
S214006F407BFB0122617823788A4030214B4342F252
S214006F50100103F1A04303F570335A5031F067FB7C
S214006F60002010BD7F23E6E70023E4E72220F8E7B1
S214006F702120F6E7F42504002DE9F0410D461646DB
S214006F801F46044600284DD000294BD00178002922
S214006F903ED04B1EDBB2022B3CD8244AD25C637830
S214006FA0DA40D00701D4FF293ED1022E01D9042EA3
S214006FB03AD131F041FB23788046FF2B05D032468C
S214006FC02046296802F0ECFB28602868421C0BD19A
S214006FD02378FF2B20D1164B6078D3F8241428F0A2
S214006FE003FA431C286017D00C22124B02FB003316
S214006FF0069A5F609A602378FF2B04D001230E4A1E
S2140070008340C2F82434404631F011FB002007E0EC
S2140070107F22C4E70022C2E7404631F008FB2D205D
S214007020BDE8F0812220FBE72120F9E7F4250400E3
S21400703000C00350E02B002000D0035008B502F03B
S2140070405FFB044B00F05530C3F82004BDE8084051
S214007050FFF7C6BE00E0035008B502F051FB044B34
S21400706000F0AA30C3F82004BDE80840FFF7B8BE19
S21400707000E003502DE9F04F144606460F4689B04F
S2140070800393C36B01225B6904A960689847F36B9E
S21400709001225B6905A93846984704A828F056F8E7
S2140070A0054650B10023A37563754FF0FF33A36008
S2140070B00025284609B0BDE8F08F05A828F053F84B
S2140070C00123A375237E04EBC303DF611D8463687D
S2140070D0BB420ED1206005A828F066F84FF0FF33BB
S2140070E02075A360237D043B022B26D80023A375BE
S2140070F0DEE723681A1A53425341A37505A828F001
S21400710053F8237D834218BFA57505A828F02FF8ED
S214007110804604A828F02BF8804518BF002305A851
S21400712018BFA37528F02AF8804604A828F026F889
S21400713080451CBF0023A375D4E705A828F017F8E0
S21400714080B1F36B022238465B6906A9984706A809
S21400715028F01BF80346207D032839D8DFE800F026
S2140071603838040905A8F3E7CC22237E04EBC303D2
S2140071701A8401F083FC129B187005A894F81880F6
S21400718027F0E9FF04EBC80888F82200237E05A84C
S21400719004EBC303B3F820A093F8228027F0E7FFA0
S2140071A0814605A827F0EAFF8346B9F1000F14D000
S2140071B0F36B022238465B6906A9984706A827F0B3
S2140071C0AAFF607568B90023A3754FF000093CE07C
S2140071D0227E04EBC2021384CBE705A827F086FFC5
S2140071E0EFE794F81690B9F1000FEED0BAF1000F61
S2140071F00DD1B8F1000F1DD00123E375637E002B7F
S2140072003FD1B8F1010F30D184F8198014E0736CC7
S21400721007EB0B015A4287EA010010421CBF00220E
S214007220A2755A1E0A409B1A9A45CCD8A37D002BFD
S214007230DFD1CAE7E37D43B94FF0000953465A460B
S2140072403946304627F0CDFCA060A37D13B12269F5
S214007250524422611F49227E097891421AD901328E
S2140072602276039ACAB91D4623E796F834307BB9CE
S214007270F36A0133E2D1B8F1030FDFD10123A3761D
S214007280DAE7B8F1010FE0D0B8F1030FD4D1F5E793
S2140072909946D3E70023A3750BE7002B3FF409AF0D
S2140072A0E57D002DDFD0B9F1000F11D1B8F1030F45
S2140072B03FF4FFAEA1684B1C3FF4FBAE129B224688
S2140072C0009330460123FFF7D5FE0546A075F0E68D
S2140072D04D46EEE6182604002DE9F04F0E46984679
S2140072E000238BB004464FF0FF31104617468DF84A
S2140072F0133001F0ADFBB6F5801F20D2314605AA4B
S21400730004F1080027F074FE451C014603D1237CD7
S214007310BBB92D2010E0384601F09AFB0122394611
S21400732020460DF1130327F0AEFC0028EFD09DF8A1
S214007330133088F8003000200BB0BDE8F08FB01C8A
S214007340E5D1E56A691C36D12046616A27F08FFBD5
S2140073500546B31C18BF0123DFF8CC900193636A7F
S214007360626C0293236805A902FB053AE36B0522CB
S2140073705B695046984705A827F082FF27F0A5FFCF
S214007380504627F0ADFF4FF0000B824601464B1CDF
S21400739005D0636C81EA0A025B42134211D029468B
S2140073A0204627F064FB029BAB422CD0BBF1000FBB
S2140073B02CD10546D3E72368ED1A636CB5FBF3F5CD
S2140073C0C7E7484601F044FB0DF113034946204643
S2140073D0019A27F058FC034690B1B21C03D0D9F8A6
S2140073E00020B2420CD19DF8132003930D4B88F871
S2140073F0002049461A68384612F056FE039B9B4604
S214007400D9F80810C3E7BBF1000F82D0B6F5801F8D
S21400741091D2314698F800307A6804F1080001F0FD
S21400742045FA88E714260400BC3300202DE9F34112
S2140074300446174698460E46184D816AE36A8B4204
S21400744001D04B1C02D102B0BDE8F081284601F005
S214007450FFFA0122294620460DF1070327F013FC08
S21400746038B14346294620469DF80720B8470028ED
S214007470E9D0A9684A1C04D16968204627F084FB35
S2140074800146012EDAD16B6881EA0302636C5B4227
S2140074901A4218BF4FF0FF31D0E700BF90330020EC
S2140074A02DE9F04F4FF0FF334FF6FF7200250446EC
S2140074B000F108068BB0C0E90923C36205620563C4
S2140074C03046884627F065FD204627F0A0FA60BBC8
S2140074D02046414627F01BFB204627F098FA60BB63
S2140074E05E200BB0BDE8F08F2368E26B606C5769D6
S2140074F000FB0530052205A9B84705A827F0C0FE01
S214007500012807460CD12946204627F0D1FA012F3C
S214007510024600D101322946204627F097FA03E0BA
S21400752027F0D8FE0028EED10135E3699D42DBD373
S214007530204627F06CFA0028CAD000254FF0FF3905
S2140075404FF6FF73CA46A846C4E90853E369984550
S2140075500AD3A5EB0905012D2CD84FF6FF72636AF6
S21400756093423CD16720BCE72368E26B606C5769A6
S21400757000FB0830052205A9B84705A827F080FEBD
S214007580834605A827F053FE0746584627F09DFE7B
S21400759068B1574538BFC4F82480B94528BFB946F6
S2140075A0BD4238BF3D46BA46236A0133236208F11E
S2140075B00108CBE74FF6FF7300256362E3699D423F
S2140075C0CBD2676C2068E36B052207FB05005B697E
S2140075D005A9984705A827F02AFE0135EEE7E26BD5
S2140075E0676C2068694607FB030055690522A847B3
S2140075F0684627F01CFE626A2368606C4B4D00FBF1
S214007600023027F06DFE4FF0FF33A062E3622A4699
S2140076106FF00101204605ABFFF75EFE002846D15D
S214007620AD6829462046E56227F0CDF9206320B9EB
S2140076302046E16A27F0A8FAE0622946204627F0AD
S214007640A3FA0546A36A9D4233D1204627F08EF959
S21400765000278046B946E36999453CD3B84559D9D1
S2140076602046616A27F003FA0026054604F1400A20
S214007670B74212D8626C2368694602FB0539E36B91
S21400768005225B6948469847684627F0D0FD534672
S21400769002464946E06B27F025FE2946204627F09D
S2140076A0E6F90136B0450546E2D1642019E7A56A39
S2140076B0B7E72946204627F086F9236B2946034478
S2140076C007462363204627F05FFA0546002FB9D108
S2140076D0C4E90B07B6E7636C2568052203FB09556A
S2140076E0E36B05A95B692846984705A827F0C8FDFF
S2140076F027F0EBFD58B1284627F0F2FD014620465C
S21400770027F061F9636C143B984208BF013709F112
S2140077100109A0E7304627F03CFC00232046194626
S214007720034AFFF783FE0020DBE600BFE8330020B5
S21400773075EC02002DE9F041036B9046826B90B029
S2140077409A4288BF8363426C436A07680E4602FB10
S2140077500377C36B01A905225B6904463846984740
S21400776001A827F08DFD01280146307057D0656CC2
S214007770E26B2368606AD2F814C005FB003005226D
S21400778006A9E04706A827F07BFD01284FF0000574
S21400779023D0D4E90A3201219342CDE90B458DF876
S2140077A034800E958DF83C102AD11946204627F0D5
S2140077B0EBF9236B626C14339B1AE06223630C9B19
S2140077C053B99DF83C303BB1626A616C2368E06B4C
S2140077D001FB023127F00CFD0C9DE36B05225B6973
S2140077E001A93846984701A827F04AFD3070284678
S2140077F0236BA26B9A4288BFA36310B0BDE8F081EA
S214007800237C33B91C490BAA04F1080001F09CF84C
S214007810D5E72046194A0BABFFF708FECFE7237CD7
S21400782023BB2246164904F1080001F08DF8616A70
S214007830204627F03DF9616A421C204627F006F9EB
S214007840054620B9236B626C1344143B2363204621
S214007850A16A27F099F92368A062C01A636CB0FB8E
S214007860F3F06062204627F0D2F9B6E70023204600
S214007870044AFFF7DBFDDAE7D97F0000557F0000FA
S2140078800FED0200ABEC020073B50D46D11E4A4266
S2140078901C461B7E4A419A4226D129682368994293
S2140078A022D3636899421FD8114E0DF10703324662
S2140078B0FFF712FDC0B972686B689A4214D19DF842
S2140078C00730DA1E53425341227E93420CD163693D
S2140078D001336361D4E90323934205D22968A26881
S2140078E042F8231001332361012002B070BD00BFAF
S2140078F0E83300202DE9F04F9A468BB09DF85030C3
S214007900DFF850B10293DBF81030804653450D4641
S2140079101646C0F09880D146DBF804300193B9F1E2
S214007920000F00F08C80D8F83C3001225B6907A974
S2140079300198984707A827F016FCDBF80030984215
S21400794040F0848007A827F019FC0428074614D1C5
S21400795007A827F01AFC019B029A04463B44002A1B
S2140079603ED1864212D91446361A4046019927F06F
S2140079700BF9A9EB04090190D1E7D8F83C300222B4
S2140079805B69019808A9984708A8E2E7841B544554
S21400799028BF5446032C03EB0607AAEB040A1DD99E
S2140079A0D8F83C30294638465B69A208984724F048
S2140079B0030304F003061F441D44002ED5D0D8F858
S2140079C03C3001225B6908A938469847324628466B
S2140079D008A9354412F068FB0026C6E72646ECE701
S2140079E0074600F00302039203442A180492059304
S2140079F0049BDD1B059BD81B039B9F420FD1002FCA
S214007A00B3D0D8F83C30012208A95B6998473A46BB
S214007A10284608A912F0FCF978B93D44A5E7D8F83D
S214007A203C30012208A95B6998470422284608A929
S214007A3012F0EEF908B9043FDAE74FF03609484687
S214007A400BB0BDE8F08F4FF06309F8E74FF06F0911
S214007A50F5E700BF143400202DE9F0410F46164626
S214007A609846044688B060B390F83450FDB10121C2
S214007A7026F0C2FF00210E9BCDE90511CDE90237A5
S214007A809DF83C30CDF804808DF81C30237C04969D
S214007A908BB90D4901AA04F1080000F055FFDDE995
S214007AA00553E06B002E08BF1D4627F03EF928461A
S214007AB008B0BDE8F0812046044A01ABFFF7B6FCEB
S214007AC0EDE70546F3E700BFD9EC02008978000031
S214007AD07FB590F84260044601920DF10B030A460A
S214007AE03046114927F029F9012E0546E36B17D1D8
S214007AF032465B6903A998479DF80B10039B019AD1
S214007B0059B19BB243EA0243012228460393E36B32
S214007B1003A99B69984704B070BD62F30F03F3E7AF
S214007B2001229B6901A9F5E7143400202DE9F04FE6
S214007B3099B0CDE90B230E460A69416CD31D143962
S214007B40B3FBF1F3013302EBC302036B044693422B
S214007B50C0F0FB810023DFF8F8930A93E36A4846F7
S214007B601946079300F074FFD6E9033705930C9B7C
S214007B70022B1CD1CC2F40F074810B9B8BB131466D
S214007B80204627F030F9656C14900B9B63B1E36BCD
S214007B9001225B69706816A9984716A827F0E7FACD
S214007BA00CE0059B1B68149308230E930DE0782FBA
S214007BB0656CEAD80B9B002BE9D1F07D00280CBF42
S214007BC004230823782F0E9328D901230025089331
S214007BD008230393336808990C98C9F80030C9F84D
S214007BE0107027F0E5FA00230F930D930693099380
S214007BF0039BDDF81CA09B0889F814001193616CA8
S214007C0003984A1E0AEA02028B1AEFB10544AB42F9
S214007C101CD8236B5B1A1344236386E0079A6B1EFB
S214007C201340EB1A3A1D934207D257B1082BCCD813
S214007C300023042508930395CCE700250423089524
S214007C40C7E704250897F6E78342E2D3039AB846C7
S214007C509B1A9F4228BF984652449F42049278D966
S214007C600123D9F8102089F81730974276D1C9F841
S214007C7004A0069399F81730002B71D099F81820B5
S214007C800699D31C09EBC3030132C3F804A0A3F87A
S214007C900880997289F81820B8F1000F14D00C9B50
S214007CA0022B60D10F9B7BB90D9B4344032B0BD952
S214007CB0E36B01229B69049814A99847054600289F
S214007CC040F0D58001230F93069B16A80193089BCE
S214007CD0009399F814204346316800F06FFEE36B7A
S214007CE050469B69119A16A99847051E0A9B18BF0D
S214007CF05346039A0A9351464346204626F071FFA0
S214007D00236B039AC9F808009B1A08F1030222F0B5
S214007D1003029B1A2363002D40F0A9800D9BDDF81B
S214007D2010A04344A7EB08070D935146204626F0C3
S214007D302BFF00258246002F7FF461AF844A31680E
S214007D40936804F10800E36252680C9B00F0AEFDF5
S214007D5089E0069B002B18BF03238AE7022388E7E7
S214007D60C9F804A098E70B9B002B30D1059BB8F10F
S214007D70030F03EB080B27D9DDE90401E36B4FEA99
S214007D8098029B6998470546002864D118F00302BC
S214007D905ED0059B28F003052B440593049B1D44E9
S214007DA04FF0FF33059915A8159312F07DF9E36B94
S214007DB0284601229B6915A998470546CDF814B0B8
S214007DC0002D81D0049B94E74246049DE8E706F127
S214007DD02003DDF810B01093F37D70689BB100238C
S214007DE0357E099AD9B28D4211D9109903F1010C4A
S214007DF031F83310914225D90E9906EBC303D869A2
S214007E000A44104403E00E9B099A13441844E36B9B
S214007E1001225B6915A99847159B01221393099BBC
S214007E20584604330993E36B13A99B699847049B50
S214007E3005464344A3EB0B03042B06D970B90BF19C
S214007E40040BC9E76346521ACCE7CDF810B0B7E783
S214007E50CDF814B038E7CDF814B0B3E7CDF810B0CD
S214007E60B0E770252F46384619B0BDE8F08F3D2D97
S214007E70F8D104F1080303932368079A606CA2EB19
S214007E80030ABAFBF0FA00FB0A3027F029FAE16A87
S214007E908046204626F078FEA36A216B8342626CF9
S214007EA045D0D9F80830571E3B40891A0B4427683E
S214007EB023630A9BE062DF1BB7FBF2F7BA4533D1B8
S214007EC0079BB3EB080A12D0E36B4FEA9A024146CF
S214007ED09B6998478346E36A079A5344E362236B99
S214007EE003989B1A4344236327F053F8DA46236823
S214007EF0616CE06B01FB073127F067F9204626F03E
S214007F0086FD204626F083FE3269616CD31D143947
S214007F10B3FBF1F30133206302EBC302BAF1000FA7
S214007F2005D09042A8D29DE74FF0000ADFE73269FD
S214007F30616CD31D1439B3FBF1F3013302EBC302BA
S214007F40236B9342BFF40AAE8CE71C278BE700BF77
S214007F50BC330020032A2DE9F34106460D4617469A
S214007F601C4606D1237A012B23D0012002B0BDE89F
S214007F70F081DFF86080096842460DF10703FFF7DD
S214007F80ABF960600028EDD19DF80730032BE9D0EF
S214007F90D8F804206B689A42E4D1237A2969012B29
S214007FA0D4F80CC007D172690CEB0103934202D9D6
S214007FB02074207CDAE708316144E1603B46012208
S214007FC029463046FFF7B2FD60600028CAD0002080
S214007FD0CCE700BFE83300202DE9F341032A17461B
S214007FE0089C06D1237A012B25D0012002B0BDE8DB
S214007FF0F0812668DFF89080304642460DF1070390
S214008000FFF76AF960600028ECD12568D8F804000C
S214008010A96A6A6C4840534210EA030CE2D1237AFC
S214008020012B0AD1E068D8F8103003447069834207
S21400803003D984F810C0207CD8E72868EB6A1B1A9E
S214008040081AB3FBF2F3B0FBF2F083420BD1706C6C
S214008050F36A421E1340326B121A134428463363E7
S21400806026F092FDE862D8F81020E3680832134440
S214008070E36001223B4604492068FFF757FD606035
S2140080800028AFD00020B1E7E83300202DE9F0410A
S2140080900025604B0E46D3F8008004461D6018B9D4
S2140080A021252846BDE8F08190F8347007B30A68A9
S2140080B003689A4240F0A4804A6843689A4240F0B7
S2140080C09F808A6883689A4240F09A80CA68C3682C
S2140080D09A4240F095800A6943699A4240F090803F
S2140080E08A69C36B9A4240F08B804B698361D8E7FC
S2140080F068223946856B11F039FED6E902123368DC
S21400810004F1080023607368A563636033696361E4
S2140081107369A36126F04FFFB36904F14000E3637F
S2140081209B68984720B9676C17B16368B3FBF7F78D
S21400813094F84330E761002BB2D00023656C2366C9
S214008140002D65D0002F63D02368B3FBF5F205FB46
S2140081501233002B56D16668B6FBF5F305FB1363A6
S214008160002B4FD1204626F01EFCA369043303449F
S2140081709E4249D340F634726369CC3B934245D85D
S214008180B5F5805F44D30321204626F035FCD4E9BC
S2140081900001E36B1B6898470546E36B0220DB682B
S2140081A09847D5B941462046FFF77AF96428054630
S2140081B004D141462046FFF773F905466DB9636C56
S2140081C0226A143B204602FB03F626F0ECFBA3696A
S2140081D0043303449E4238BF5A25002D0CBF0123AA
S2140081E0002384F8343007D1D4E900010A4A136822
S2140081F00133136026F079FFE06B26F096FD50E71A
S2140082005D254EE759254CE75A254AE75F2548E79E
S2140082105B2546E74C2D0020482D00202DE9FF4128
S2140082200C4616461F46054688B390F8343083B38E
S214008230B1F5801F2FD2DFF86480012126F0DCFB29
S2140082404246214628460DF10F03FFF745F8024641
S214008250C8B99DF80F30012B10D1D8F81030BB42AA
S21400826013D1009031462846FFF744FB0446E86BDE
S21400827026F05BFD204604B0BDE8F081022B0CBF63
S21400828060242D24F3E72D24F1E76324EFE721246F
S214008290F0E71124EEE72924ECE700BF14340020B1
S2140082A02DE9F04385B00E4617461C460546DDF818
S2140082B03080A0B390F834309BB3B1F5801F32D233
S2140082C0DFF86890012126F097FB4A46314628469B
S2140082D00DF10F03FFF700F8E8B99DF80F30012BFA
S2140082E014D1D9F8102004EB08039A4215D322467D
S2140082F00090434639462846FFF7FCFA0446E86BEA
S21400830026F013FD204605B0BDE8F083022B0CBF17
S21400831060242D24F3E72D24F1E76324EFE72124DE
S214008320F0E71124EEE72924ECE700BF1434002020
S21400833073B50C461646054630B390F834302BB36A
S214008340B1F5801F24D2012126F056FB214628468F
S214008350104A0DF10703FEF7BFFF044680B99DF8EB
S2140083600730032B0CD0022B0CD12846094926F0E7
S2140083703AFD3060E86B26F0D8FC204602B070BDAF
S2140083802D24F7E76124F5E72124F6E71124F4E726
S2140083902924F2E7143400202DE9F3411E46002379
S2140083A00C4617460546336050B390F834304BB34E
S2140083B0B1F5801F28D2DFF85480012126F01CFB7F
S2140083C02146424628460DF10703FEF785FF044680
S2140083D0A0B99DF80730032B10D0022B03BF012352
S2140083E03B600423D8F8103018BF38603360E86B61
S2140083F026F09BFC204602B0BDE8F0812D24F6E76F
S2140084002124F7E71124F5E72924F3E714340020A4
S21400841073B50446056B26F0C6FA636E03449D42A8
S2140084202CBF00230123854294BF00252D1A207CF3
S21400843084F85030656584F85800A8B100230C4EC7
S2140084401A4619462046009626F091FD002305465A
S2140084501A4619462046009626F092FDE368284400
S214008460984294BF0020C01AE06502B070BD00BFFD
S214008470FFFF0F002DE9F3471E4643690446B3424B
S214008480884617469DF828904ED300258DF807504D
S214008490204626F088FAD4F830A082450AD2236A0D
S2140084A0B5EB430F06D2002220460DF10701FFF779
S2140084B041F9B8B39DF80730012B05D100222046BC
S2140084C00DF10701FFF736F9B9F1030F06D0314673
S2140084D0204626F058FA256B854227D3144D4FF0D8
S2140084E0FF31284600F0B4FA4B46294600222046C3
S2140084F0C5E90376C5F80080FFF718FB236E05462E
S21400850063B12046FFF784FF94F8503013B994F80F
S21400851058301BB1236E04F150009847284602B02D
S214008520BDE8F0870135B3E76225F7E71C25F5E7D8
S214008530E83300202DE9FF410F4690461E460546CB
S21400854098B390F8343093B3B1F5801F31D21A4CFB
S214008550022126F051FA2246394628460DF10F032D
S214008560FEF7BAFE024678B101234246009339462A
S21400857033462846FFF77EFF0446E86B26F0D5FB19
S214008580204604B0BDE8F0819DF80F30012BEBD1FA
S2140085902169B142E8D10093414633462846FFF7A9
S2140085A0A9F904460028DFD1E7E72124E8E71124EB
S2140085B0E6E72924E4E700BF143400202DE9F04361
S2140085C090F8423087B0012B05460391A1EB0208D4
S2140085D040F0B080B8F1FF0F01D81F4600E0032737
S2140085E06426002445E00127012B4FF03206F8D020
S2140085F0002432223FE0284605AB2246504926F0AA
S214008600D0FB95F842300598012B3FD14FF6FF720C
S21400861090422BD1264664225FFA84F9921BBA4216
S21400862018D3012F4BD10022012BCDF814808DF8E2
S214008630132038D1082205A90DF1130026F06CFE90
S2140086409DF81330059A42EA032231462846FFF782
S2140086503FFA40B102233A4900932846CC230968E2
S21400866003AAFFF707FF07B0BDE8F083C0B258B112
S2140086700134012364229442BDD3012B14BF32225D
S21400868064225FFA86F9C9E70334F2E7421C04D194
S214008690264632225FFA84F9C0E780B208B1013478
S2140086A0A7E70234A5E7102205A90DF1130026F06E
S2140086B033FE9DF81330059A42EA0342C5E7039A53
S2140086C0012B059225D10823202205A90DF11300C0
S2140086D08DF8133026F020FE9DF813201202314646
S2140086E02846FFF7F5F995F8423009F10101012B0C
S2140086F0C9B21BD10028ADD12846BDF81420FFF71B
S214008700E7F90028A6D109F10201BDF81620C9B282
S2140087109CE71023202205A90DF113008DF81330D5
S21400872026F0FAFD9DF813201204D8E7002891D110
S214008730059A8BE7B8F5803FFFF455AF022753E75D
S2140087401434002070B586B00E4605460392A0B3DA
S21400875090F834309BB3B1F5801F32D2022126F058
S2140087604BF931462846184A0DF11703FEF7B4FDBB
S214008770044618B99DF81730032B0ED10223314654
S21400878000932846CC2303AAFFF774FE0446E86B42
S21400879026F0CBFA204606B070BD022B0BD10A4954
S2140087A0284626F020FB039902468142EFD0284651
S2140087B0FFF704FFEAE76124E9E72124EAE711244A
S2140087C0E8E72924E6E700BF14340020F7B50C4696
S2140087D01646054668B390F8343063B3B1F5801F8B
S2140087E02BD2022126F008F921462846144A0DF11C
S2140087F00703FEF771FDC0B99DF80730032B14D0B0
S214008800022B14D10E49284626F0EDFA471C0246E4
S21400881039462846FFF7D2FE044606B13760E86BB5
S21400882026F083FA204603B0F0BD2D24F7E7612436
S214008830F5E72124F6E71124F4E72924F2E700BF40
S2140088401434002030B50C46054685B028B390F8A1
S214008850343023B3B1F5801F23D2022126F0CCF8A2
S2140088600DF10F03214628460F4AFEF735FD034655
S21400887088B99DF80F20032A0DD0032221460092C6
S21400888002462846FFF7F6FD0446E86B26F04DFA4A
S214008890204605B030BD2D24F7E72124F8E7112443
S2140088A0F6E72924F4E700BF143400202DE9F0434E
S2140088B0466886B3056898464FF0000CA946AE4653
S2140088C055F83C400CF1010CC4F31307013401D0F9
S2140088D0B94217D0B4450EF1080EF1D12F46002448
S2140088E003E0B44207F1080712D055F834300134DB
S2140088F00133F6D1C1F3130141EA0851C7E900126A
S214008900BDE8F08341EA0851CEE90012BDE8F083E5
S214008910B8F1030F03D101230372BDE8F0830023EF
S21400892003E0B34209F10809F5D055F833400133A6
S214008930C4F30754032CF4D1C1F3130343EA0853DA
S214008940C9E90032BDE8F0832DE9F04106464068EB
S21400895082B0B8B10F4690460024336853F83450BE
S21400896003EBC403C5F30752C5F31301013506D064
S2140089705B683046CDF80080B84718B1706801349F
S2140089808442EAD302B0BDE8F08100BF024B19680A
S214008990024B1868FFF77ABB885C0020A85C0020B2
S2140089A008B52FF03CFE014B186008BD403400208F
S2140089B0014B18682FF02EBE4034002073B50446D5
S2140089C02248012A00EAC1119DF8185023F07C4085
S2140089D007D9961E012E28D9073303F07F031943C3
S2140089E008E09DF81C300A43DB0603F0C05313432F
S2140089F043F060410023C4E900108DF80730B5B19C
S214008A00202221460DF1070026F086FC1A220DF1E1
S214008A100700211D26F080FC082063689DF80720CB
S214008A2043EA8263636002B070BD1143E2E71B2233
S214008A300DF10700214626F06FFC23689DF80720FD
S214008A40042043EAC2632360EDE700BF80FFFF0710
S214008A5038B5094B0D461A680021044611F086F910
S214008A6000234FF0FF322383C4E900252361A26070
S214008A70E382A37638BD00BF142604000138C0B2D6
S214008A8005289ABF014B185C012070471926040080
S214008A902DE9F0410746154600240E46596888B071
S214008AA0490A012922464FEA510104F10104F8D887
S214008AB0DC78997824031B88C90201F4006104F469
S214008AC080540C43C3F30A035203234492B24FF07C
S214008AD000089C18274B6FEA0444039325F078435C
S214008AE0ED4302A90DF107001B2202938DF80780C3
S214008AF026F012FC9DF80720029B02A943EAC263F7
S214008B000DF107001B2225F07845049302958DF899
S214008B10078026F001FC9DF80720029B6FEA1444AC
S214008B2043EAC26305934FF0FF330794069307A901
S214008B30BB69012206F110009847BB6905A90446E7
S214008B40012206F108009847BB69404518BF044655
S214008B5004A90122301D98470122404518BF04464B
S214008B60BB69304603A99847404508BF204608B071
S214008B70BDE8F08101009AB238B5104B0546D3F82F
S214008B8000310C4603F00303022B0BD0032B0DD051
S214008B90012B0FD12DF0C4FE032305B1286004B1CC
S214008BA0236038BD2DF006FF0723F6E72FF04AFDB9
S214008BB00623F2E701230020EFE700BF0080005005
S214008BC038B5134B0546D3F820010C4600F00700D5
S214008BD004281AD8DFE800F003090D111500012358
S214008BE005B1286004B1236038BD2DF05FFE042374
S214008BF0F6E72DF095FE0323F2E72DF097FE05230A
S214008C00EEE72DF089FE0223EAE700231846E7E7A1
S214008C100080005038B5104B0546D3F840310C465E
S214008C2003F00303022B0BD0032B0DD0012B0FD127
S214008C302FF00AFD082305B1286004B1236038BD73
S214008C402DF0B8FE0723F6E72FF001FD0923F2E723
S214008C5001230020EFE700BF0080005038B5104B1E
S214008C600546D3F860310C4603F00303022B0BD005
S214008C70032B0DD0012B0FD12FF0E6FC082305B1F6
S214008C80286004B1236038BD2DF094FE0723F6E774
S214008C902FF0DDFC0923F2E701230020EFE700BFF9
S214008CA00080005041F6713210B5104C104BA042B7
S214008CB094BF00240124D969DA639A6801F48031EC
S214008CC022F4401242EA04529A600A4A90420A4A41
S214008CD0D2F818028CBF40F0020020F00200C2F862
S214008CE0180209B10022DA6310BD00BF005A620202
S214008CF00000035080F0FA0200C007502E4B984246
S214008D004AD022D82D4B984240D014D82C4B9842AB
S214008D1039D00AD82B4B984232D02B4B98422FD0C2
S214008D202A4B98422CD000207047294B9842FAD103
S214008D30284B186F7047284B98422AD0274B9842EA
S214008D40F1D1244BD3F880007047254B98422BD0A6
S214008D5009D8244B984223D0234B9842E3D11D4B8D
S214008D60D3F88C007047214B984221D003F574034A
S214008D7003F510539842D6D1164BD3F89800704797
S214008D80144B986D7047134B586E7047114B586FC5
S214008D907047104B986F70470E4BD3F8840070479F
S214008DA00C4BD3F8880070470A4BD3F890007047F6
S214008DB0084BD3F8940070470048E8010024F400FC
S214008DC0C0CF6A0080841E0000093D0040420F00AC
S214008DD0405DC6000080E00FC0EA210180BA8C0129
S214008DE0007E560380D54302006CDC020090D00360
S214008DF037B50C460021114B0191D3F8803105465A
S214008E0003F00303022B0ED0032B11D0012B03D14A
S214008E1001A8FFF7D5FE0D210DB1019B2B6004B113
S214008E20216003B030BD2DF081FD05210190F3E7F0
S214008E302DF072FD02210190EEE700BF0080005089
S214008E4038B5104B0546D3F840320C4603F0030302
S214008E50022B0BD0032B0DD0012B0FD12FF0F4FBE0
S214008E60082305B1286004B1236038BD2DF0A2FDAB
S214008E700723F6E72FF0EBFB0923F2E7002318465B
S214008E80EFE700BF0080005038B5144B0546D3F816
S214008E9000020C4600F0070004281BD8DFE800F0AC
S214008EA003090D111500012305B1286004B12360E4
S214008EB038BD2FF0C9FB0823F6E72DF07BFD07230E
S214008EC0F2E72FF0C4FB0923EEE72DF00FFD0C238D
S214008ED0800AE9E700231846E6E700BF0080005056
S214008EE038B5144B0546D3F808020C4600F00700C8
S214008EF004281BD8DFE800F003090D111500012334
S214008F0005B1286004B1236038BD2FF09DFB08230F
S214008F10F6E72DF04FFD0723F2E72FF098FB092325
S214008F20EEE72DF0E3FC0C23800AE9E70023184661
S214008F30E6E700BF00800050032814D005D80128BB
S214008F4005D0022809D0002005E00F28FBD1084BE9
S214008F50186FC0F3013001307047054BD3F890000E
S214008F60C0F30460F7E7024B186FC0F38020F2E707
S214008F70008000501FB500230193252817D8DFE88E
S214008F8000F0131A1D272C363B51565B60656A7835
S214008F90161A401616561A272C27361A5127783BCB
S214008FA03B3B3B2727275B602DF086FC0190019812
S214008FB005B05DF804FB2DF099FCF7E72DF07CFC7E
S214008FC002460220FFF7B8FFB2FBF0F20192EEE78E
S214008FD02DF08CFC02460320F4E72DF087FC0246B9
S214008FE00320FFF7A9FFB2FBF0F25208EEE70021DC
S214008FF001A8FFF7FDFEDAE7002101A8FFF7E0FD74
S214009000D5E702934FF0E0231B695B0705D52DF0EB
S2140090106DFC0290029B0193C9E703A902A8FFF723
S214009020F9FDF7E7002101A8FFF7F4FDBFE70021EF
S21400903001A8FFF713FEBAE7002101A8FFF724FFF7
S214009040B5E7002101A8FFF74BFFB0E7002101A814
S214009050FFF792FDABE7094BD3F8803003F003032C
S214009060022BA8D0032B01D000209FE72DF05EFC3A
S2140090709CE7002101A8FFF7E3FE98E70080005078
S21400908008B50120FFF776FFBDE80840034988428F
S21400909094BF01210221032000F002B880F0FA02FA
S2140090A0032810B50C4627D004D8012804D002287F
S2140090B017D010BD0F28FCD126F04CF926F052F937
S2140090C0124A013C136F23F4405343EA04331367F8
S2140090D02DF00CFC0021FFF7E5FDBDE81040FFF782
S2140090E0CFBF0A4A4C1ED2F8903023F0F85343EA1A
S2140090F00463C2F89030DCE7044A4C1E136F23F476
S214009100806343EA84231367D3E700BF00800050E0
S2140091101FB500230193252821D8DFE800F013208F
S2140091202020202A2F454A4F54595E712020342093
S214009130204A202020202A204520712F2F2F2F2044
S21400914020204F54314B1B6F03F00703013B032BCA
S21400915005D8DFE803F00C02080A042301930198FF
S21400916005B05DF804FB0323F8E70623F6E70223C1
S214009170F4E7002001A9FFF73BFEF0E7002001A975
S214009180FFF71EFDEBE702934FF0E0231B695B073A
S21400919005D52DF0ABFB0B230393039BDEE703A95A
S2140091A002A8FFF737FDF8E7002001A9FFF732FD18
S2140091B0D5E7002001A9FFF751FDD0E7002001A95F
S2140091C0FFF762FECBE7002001A9FFF789FEC6E79E
S2140091D0002001A9FFF7D0FCC1E70C4BD3F8803084
S2140091E003F00303022B03D0032B05D00023B5E7BF
S2140091F02DF07CFB0B23B1E72DF098FB0523ADE7A4
S214009200002001A9FFF71CFEA9E700BF0080005060
S21400921008B50320FFF790FE034B187026F09AF867
S214009220BDE8084026F09EB82653002010B5044638
S2140092302DF05CFB0021FFF735FD1CB1BDE81040AA
S214009240FFF71EBF034B0320BDE810401978FFF759
S21400925027BF00BF2653002038B50546FFF74EFD52
S214009260204B04465A68012A04D11F494A609A696D
S2140092709207FCD10020FFF74BFF042803D126F00D
S21400928069F826F06FF8194A24F0407395421FD00B
S214009290174A95421FD0174AD16811F0060FFBD126
S2140092A09068936091684B4013F4F81F16D12846D7
S2140092B0FDF780FD0020FFF72BFF042810D12DF0CE
S2140092C015FB0021FFF7EEFCBDE83840FFF7D8BEDF
S2140092D043F00073DFE743F08073DCE79060E9E774
S2140092E038BD00BF00C0015000E0015040420F00F2
S2140092F080841E000000015070B504460020FFF771
S21400930007FF03287CD045F60E030221414AC2F827
S2140093108030414B9962012103F580539962936D29
S214009320D903FCD4D4E900131B0543EA0163E17BAF
S21400933094F823500B43217B43EA0143617B43EAC5
S2140093400133A17B43EA811313619169D4E90403D5
S2140093501B0643EA806301F000410B43A17EE07EDA
S2140093600B43217E43EA0143617E43EA0123936176
S214009370E169136A002923F00D0343EA010314BFD1
S2140093800121002143EA800343EAC103136294F8F3
S214009390203094F82200916A4FEA431331D194F8B2
S2140093A0216021F0330143EA06130B4343F0010327
S2140093B093621A49174A936D31EA0303FBD10221DF
S2140093C0154B9962936D5B00FCD41369A16823F476
S2140093D0700343EA015313614FF000420E4B9A614B
S2140093E018B9022203F580539A6215B901220C4B74
S2140093F09A6294F824301BB1064B0A4AC3F88020C0
S21400940070BD21F0330129430B4343EA40039362C6
S214009410EFE700BF00C0005000D00050030001403E
S21400942000E00050F1A7FFFF014B93F900007047E2
S21400943027530020014B1880704700BFF8600020BB
S2140094400C4A10B51369044643F0040313612DF06B
S214009450BDFD25F08BFF084B084AC3F8202430BF1B
S21400946025F085FF01F058FF1CB9BDE810402DF02F
S2140094703DBA10BD00ED00E000E003500000FFFF25
S214009480034A0179D36E23F030030B43D36670474B
S21400949000400050072A2DE9F0410D461446984634
S2140094A00FD803269700BE4000FA07F2314615484B
S2140094B025F060FF05F0030231461348BA4025F058
S2140094C059FF124A12490123B8F1000F08BF11468E
S2140094D003FA04F40C609DF818000E490E4B0028A1
S2140094E018BF0B461C600D4B9DF81C00C3F82044AB
S2140094F0103103F22443002818BF0B461C60BDE859
S214009500F08100BF00C4035008C4035010E40350A9
S21400951010D4035014D4035014E4035000E0035056
S214009520F8B504460D461F4616464AB101238B4041
S2140095303021184A01FB0022EFB141F210015350CE
S2140095403023072D4FF00F0104FB03F316D8A800B5
S21400955006FA00F281401048184425F00BFF4EB979
S214009560012330210B4AAB4001FB042277B141F2C4
S21400957010015350F8BD42F21001E0E7A5F10800D3
S214009580800006FA00F281400448E5E742F2100146
S214009590EFE700BF00C0035004C003500CC00350E8
S2140095A03022064B072902FB00338ABF0839586869
S2140095B0D8688900C84000F00F00704700C003500C
S2140095C041F67132034BDA63012203F50053DA6089
S2140095D0704700BF0000035041F671320121044B72
S2140095E0DA6303F50052D1600022DA63704700BFE9
S2140095F000000350044B1868421C02BF034AD2F80E
S21400960094001860704700BFAC5C0020004000501B
S214009610CB784A7810B55B010C7843EA82030A7966
S214009620234343EA02130C22424302F1B04213637F
S214009630012C02BF8A78024B43F8202010BD00BFE1
S214009640D080035008B54FF0B0435A6802B960B1F5
S2140096505B680BB125F0A3FE4FF0B04130B101209E
S214009660074B586025F09BFEC86008BD25F097FEA6
S2140096700223CB6025F093FE0122024B5A60F4E7EA
S21400968000100058002000584FF0B0414B6810B54D
S2140096900BB125F084FE01220B4BC4785A60837808
S2140096A0934043EA840344782343047943EA04134B
S2140096B0447943EAC4038B60044B5A600378C3F1D1
S2140096C00203CB6010BD00BF0020005800100058F9
S2140096D0054B5B69C3F38512827003F03F021B0BD8
S2140096E042700370704700BF00C007500120034B54
S2140096F09B680A3303F01F03984070470080E00F12
S214009700034BD3F82424D3F820041040704700BF3E
S21400971000C003502DE9F8431E4B0546D3F810331E
S2140097204B1E0E2B0E46174690F8008044781BD929
S214009730F9B14FF000092846C7B12EF08BFF302351
S214009740072C03FB08F316D80F21A400124809FAC9
S21400975004F2A140184425F02AFEC6B9284697B15F
S214009760BDE8F8432EF076BF8946E4E725F02EFEE6
S214009770E5E78946E3E70F21083CA400074809FA15
S21400978004F2A140E6E7BDE8F84325F01FBEBDE8B9
S214009790F88300BF00C0035004C003500CC0035041
S2140097A0214B2DE9F0411646D3F810234A1C0546F6
S2140097B00C4605D1D3F82414407825F015FE04464F
S2140097C0002C2EDB072C14DC03274FEA84082A78AB
S2140097D007FA08F73946154802FA08F225F0E7FDB9
S2140097E06A78394602F00302114802FA08F225F0B8
S2140097F0DEFD012316F0050F0E4A18BF0E4903FAC8
S21400980004F30CBFC2F81034C1F8103416F0060F7B
S21400981018BF094AC2F814340123064AA340C2F806
S21400982020342046BDE8F08100C0035000C4035039
S21400983008C4035000E0035000D0035070B504463F
S2140098402AF0C2F9064630B90FCC044D0FC594E88D
S2140098500F0085E80F00304670BD00BF443400207E
S21400986047F6FF739A42F0B570D0022970D8394B8C
S2140098705B5C022B6CD8384DDE0005EBC304A77882
S21400988015F83330012F394638BF0121012B16D188
S214009890E078401A0021884205D8012F2CBFC01955
S2140098A00130C0B2F0BD431A6568A0EB530335F92A
S2140098B013509542D4BF194603F1FF30EBE76068BA
